{
  "contractName": "All_In_One",
  "abi": [
    {
      "constant": false,
      "inputs": [
        {
          "internalType": "uint256",
          "name": "_adharCardNumber",
          "type": "uint256"
        },
        {
          "internalType": "string",
          "name": "_name",
          "type": "string"
        },
        {
          "internalType": "string",
          "name": "_addres",
          "type": "string"
        },
        {
          "internalType": "uint256",
          "name": "_phoneNo",
          "type": "uint256"
        },
        {
          "internalType": "string",
          "name": "_bloodGroup",
          "type": "string"
        },
        {
          "internalType": "uint256",
          "name": "_insuranceCompany",
          "type": "uint256"
        },
        {
          "internalType": "uint256",
          "name": "_emergencyContact",
          "type": "uint256"
        }
      ],
      "name": "addPatientInfo",
      "outputs": [],
      "payable": false,
      "stateMutability": "nonpayable",
      "type": "function"
    },
    {
      "constant": true,
      "inputs": [
        {
          "internalType": "uint256",
          "name": "_adharCardNumber",
          "type": "uint256"
        }
      ],
      "name": "getPatientInfo",
      "outputs": [
        {
          "internalType": "string",
          "name": "name",
          "type": "string"
        },
        {
          "internalType": "string",
          "name": "addres",
          "type": "string"
        },
        {
          "internalType": "uint256",
          "name": "phoneNo",
          "type": "uint256"
        },
        {
          "internalType": "string",
          "name": "bloodGroup",
          "type": "string"
        },
        {
          "internalType": "uint256",
          "name": "insuranceCompany",
          "type": "uint256"
        },
        {
          "internalType": "uint256",
          "name": "emergencyContacts",
          "type": "uint256"
        },
        {
          "internalType": "string",
          "name": "Precautions",
          "type": "string"
        }
      ],
      "payable": false,
      "stateMutability": "view",
      "type": "function"
    },
    {
      "constant": false,
      "inputs": [
        {
          "internalType": "uint256",
          "name": "_adharCardNumber",
          "type": "uint256"
        },
        {
          "internalType": "string",
          "name": "_Precautions",
          "type": "string"
        }
      ],
      "name": "UpdatePrecautions",
      "outputs": [],
      "payable": false,
      "stateMutability": "nonpayable",
      "type": "function"
    },
    {
      "constant": false,
      "inputs": [
        {
          "internalType": "uint256",
          "name": "_companyId",
          "type": "uint256"
        },
        {
          "internalType": "string",
          "name": "_name",
          "type": "string"
        },
        {
          "internalType": "uint256",
          "name": "phone_no",
          "type": "uint256"
        }
      ],
      "name": "addInsurancecompany",
      "outputs": [],
      "payable": false,
      "stateMutability": "nonpayable",
      "type": "function"
    },
    {
      "constant": true,
      "inputs": [
        {
          "internalType": "uint256",
          "name": "Insu_id",
          "type": "uint256"
        }
      ],
      "name": "getInsuranceCompany",
      "outputs": [
        {
          "internalType": "string",
          "name": "name",
          "type": "string"
        },
        {
          "internalType": "uint256",
          "name": "phoneNo",
          "type": "uint256"
        }
      ],
      "payable": false,
      "stateMutability": "view",
      "type": "function"
    },
    {
      "constant": false,
      "inputs": [
        {
          "internalType": "string",
          "name": "_Medication",
          "type": "string"
        }
      ],
      "name": "addNotCoverdMedicationInInsurance",
      "outputs": [],
      "payable": false,
      "stateMutability": "nonpayable",
      "type": "function"
    },
    {
      "constant": true,
      "inputs": [
        {
          "internalType": "uint64",
          "name": "_adharCardNumber",
          "type": "uint64"
        }
      ],
      "name": "applyForInsurance",
      "outputs": [
        {
          "internalType": "string",
          "name": "InsuranceStatus",
          "type": "string"
        }
      ],
      "payable": false,
      "stateMutability": "view",
      "type": "function"
    },
    {
      "constant": false,
      "inputs": [
        {
          "internalType": "uint256",
          "name": "patient_id",
          "type": "uint256"
        }
      ],
      "name": "createTreatmentID",
      "outputs": [
        {
          "internalType": "uint256",
          "name": "",
          "type": "uint256"
        }
      ],
      "payable": false,
      "stateMutability": "nonpayable",
      "type": "function"
    },
    {
      "constant": false,
      "inputs": [
        {
          "internalType": "uint256",
          "name": "patient_id",
          "type": "uint256"
        },
        {
          "internalType": "uint256",
          "name": "doctor_id",
          "type": "uint256"
        },
        {
          "internalType": "string",
          "name": "diagnosis",
          "type": "string"
        },
        {
          "internalType": "string",
          "name": "test_conducted",
          "type": "string"
        },
        {
          "internalType": "uint256",
          "name": "bill",
          "type": "uint256"
        },
        {
          "internalType": "string",
          "name": "medicine",
          "type": "string"
        }
      ],
      "name": "TreatPatient",
      "outputs": [
        {
          "internalType": "uint256",
          "name": "",
          "type": "uint256"
        }
      ],
      "payable": false,
      "stateMutability": "nonpayable",
      "type": "function"
    },
    {
      "constant": true,
      "inputs": [
        {
          "internalType": "uint256",
          "name": "_tid",
          "type": "uint256"
        }
      ],
      "name": "getTreatmentDetails",
      "outputs": [
        {
          "internalType": "uint256",
          "name": "p_id",
          "type": "uint256"
        },
        {
          "internalType": "uint256",
          "name": "d_id",
          "type": "uint256"
        },
        {
          "internalType": "string",
          "name": "diagnosis",
          "type": "string"
        },
        {
          "internalType": "string",
          "name": "test_conducted",
          "type": "string"
        },
        {
          "internalType": "uint256",
          "name": "bill",
          "type": "uint256"
        },
        {
          "internalType": "string",
          "name": "medicine",
          "type": "string"
        }
      ],
      "payable": false,
      "stateMutability": "view",
      "type": "function"
    },
    {
      "constant": false,
      "inputs": [
        {
          "internalType": "uint256",
          "name": "p_id",
          "type": "uint256"
        },
        {
          "internalType": "string",
          "name": "_medication",
          "type": "string"
        }
      ],
      "name": "addInsuranceKeep",
      "outputs": [],
      "payable": false,
      "stateMutability": "nonpayable",
      "type": "function"
    },
    {
      "constant": false,
      "inputs": [
        {
          "internalType": "uint256",
          "name": "doc_id",
          "type": "uint256"
        },
        {
          "internalType": "string",
          "name": "name",
          "type": "string"
        },
        {
          "internalType": "string",
          "name": "practice_type",
          "type": "string"
        },
        {
          "internalType": "string",
          "name": "area_of_expertize",
          "type": "string"
        },
        {
          "internalType": "uint256",
          "name": "phone_no",
          "type": "uint256"
        },
        {
          "internalType": "string",
          "name": "Address",
          "type": "string"
        }
      ],
      "name": "addDoctor",
      "outputs": [],
      "payable": false,
      "stateMutability": "nonpayable",
      "type": "function"
    },
    {
      "constant": true,
      "inputs": [
        {
          "internalType": "uint256",
          "name": "_d_id",
          "type": "uint256"
        }
      ],
      "name": "getDoctorDetails",
      "outputs": [
        {
          "internalType": "uint256",
          "name": "doc_id",
          "type": "uint256"
        },
        {
          "internalType": "string",
          "name": "name",
          "type": "string"
        },
        {
          "internalType": "string",
          "name": "practice_type",
          "type": "string"
        },
        {
          "internalType": "string",
          "name": "area_of_expertize",
          "type": "string"
        },
        {
          "internalType": "uint256",
          "name": "phone_no",
          "type": "uint256"
        },
        {
          "internalType": "string",
          "name": "Address",
          "type": "string"
        }
      ],
      "payable": false,
      "stateMutability": "view",
      "type": "function"
    },
    {
      "constant": false,
      "inputs": [
        {
          "internalType": "uint256",
          "name": "_adharCardNumber",
          "type": "uint256"
        }
      ],
      "name": "requestAccessToPatient",
      "outputs": [
        {
          "internalType": "uint256",
          "name": "",
          "type": "uint256"
        }
      ],
      "payable": false,
      "stateMutability": "nonpayable",
      "type": "function"
    },
    {
      "constant": false,
      "inputs": [
        {
          "internalType": "uint256",
          "name": "_adharCardNumber",
          "type": "uint256"
        },
        {
          "internalType": "uint256",
          "name": "OTP",
          "type": "uint256"
        }
      ],
      "name": "getDetailsOfAllTID",
      "outputs": [
        {
          "internalType": "uint256[]",
          "name": "",
          "type": "uint256[]"
        }
      ],
      "payable": false,
      "stateMutability": "nonpayable",
      "type": "function"
    },
    {
      "constant": false,
      "inputs": [
        {
          "internalType": "uint256",
          "name": "chem_id",
          "type": "uint256"
        },
        {
          "internalType": "string",
          "name": "Address",
          "type": "string"
        },
        {
          "internalType": "string",
          "name": "name",
          "type": "string"
        },
        {
          "internalType": "uint256",
          "name": "phone_no",
          "type": "uint256"
        }
      ],
      "name": "addChemist",
      "outputs": [],
      "payable": false,
      "stateMutability": "nonpayable",
      "type": "function"
    },
    {
      "constant": false,
      "inputs": [
        {
          "internalType": "uint256",
          "name": "chem_id",
          "type": "uint256"
        }
      ],
      "name": "getchemistinfo",
      "outputs": [
        {
          "internalType": "string",
          "name": "Address",
          "type": "string"
        },
        {
          "internalType": "string",
          "name": "name",
          "type": "string"
        },
        {
          "internalType": "uint256",
          "name": "phone_no",
          "type": "uint256"
        }
      ],
      "payable": false,
      "stateMutability": "nonpayable",
      "type": "function"
    },
    {
      "constant": true,
      "inputs": [
        {
          "internalType": "uint256",
          "name": "p_id",
          "type": "uint256"
        }
      ],
      "name": "giveMedicines",
      "outputs": [
        {
          "internalType": "string",
          "name": "",
          "type": "string"
        }
      ],
      "payable": false,
      "stateMutability": "view",
      "type": "function"
    },
    {
      "constant": false,
      "inputs": [],
      "name": "Identify",
      "outputs": [
        {
          "internalType": "uint256",
          "name": "val",
          "type": "uint256"
        }
      ],
      "payable": false,
      "stateMutability": "nonpayable",
      "type": "function"
    }
  ],
  "bytecode": "0x608060405234801561001057600080fd5b50613709806100206000396000f3fe608060405234801561001057600080fd5b50600436106101215760003560e01c8063a6f27faf116100ad578063d63bb6e411610071578063d63bb6e414611194578063e22900ff146113a5578063e4837d6114611453578063eb7d01c21461156d578063ff4e0877146115af57610121565b8063a6f27faf14610e9e578063b483cefe14610f45578063cb96b1aa1461100a578063d0b89101146110c5578063d48b2e921461117657610121565b8063412f8c35116100f4578063412f8c351461089d5780635b8126df146108df5780636c5a0ab2146109a4578063828927c414610b385780639ecb17a714610d3857610121565b80632536ae31146101265780632a239456146101f55780633ac2a0eb146104895780633b6d5b8c146106a4575b600080fd5b6101f36004803603606081101561013c57600080fd5b81019080803590602001909291908035906020019064010000000081111561016357600080fd5b82018360208201111561017557600080fd5b8035906020019184600183028401116401000000008311171561019757600080fd5b91908080601f016020809104026020016040519081016040528093929190818152602001838380828437600081840152601f19601f8201169050808301925050505050505091929192908035906020019092919050505061163c565b005b610487600480360360c081101561020b57600080fd5b81019080803590602001909291908035906020019064010000000081111561023257600080fd5b82018360208201111561024457600080fd5b8035906020019184600183028401116401000000008311171561026657600080fd5b91908080601f016020809104026020016040519081016040528093929190818152602001838380828437600081840152601f19601f820116905080830192505050505050509192919290803590602001906401000000008111156102c957600080fd5b8201836020820111156102db57600080fd5b803590602001918460018302840111640100000000831117156102fd57600080fd5b91908080601f016020809104026020016040519081016040528093929190818152602001838380828437600081840152601f19601f8201169050808301925050505050505091929192908035906020019064010000000081111561036057600080fd5b82018360208201111561037257600080fd5b8035906020019184600183028401116401000000008311171561039457600080fd5b91908080601f016020809104026020016040519081016040528093929190818152602001838380828437600081840152601f19601f820116905080830192505050505050509192919290803590602001909291908035906020019064010000000081111561040157600080fd5b82018360208201111561041357600080fd5b8035906020019184600183028401116401000000008311171561043557600080fd5b91908080601f016020809104026020016040519081016040528093929190818152602001838380828437600081840152601f19601f8201169050808301925050505050505091929192905050506117e3565b005b61068e600480360360c081101561049f57600080fd5b810190808035906020019092919080359060200190929190803590602001906401000000008111156104d057600080fd5b8201836020820111156104e257600080fd5b8035906020019184600183028401116401000000008311171561050457600080fd5b91908080601f016020809104026020016040519081016040528093929190818152602001838380828437600081840152601f19601f8201169050808301925050505050505091929192908035906020019064010000000081111561056757600080fd5b82018360208201111561057957600080fd5b8035906020019184600183028401116401000000008311171561059b57600080fd5b91908080601f016020809104026020016040519081016040528093929190818152602001838380828437600081840152601f19601f820116905080830192505050505050509192919290803590602001909291908035906020019064010000000081111561060857600080fd5b82018360208201111561061a57600080fd5b8035906020019184600183028401116401000000008311171561063c57600080fd5b91908080601f016020809104026020016040519081016040528093929190818152602001838380828437600081840152601f19601f8201169050808301925050505050505091929192905050506119cd565b6040518082815260200191505060405180910390f35b6106d0600480360360208110156106ba57600080fd5b8101908080359060200190929190505050611b7c565b604051808781526020018060200180602001806020018681526020018060200185810385528a818151815260200191508051906020019080838360005b8381101561072857808201518184015260208101905061070d565b50505050905090810190601f1680156107555780820380516001836020036101000a031916815260200191505b50858103845289818151815260200191508051906020019080838360005b8381101561078e578082015181840152602081019050610773565b50505050905090810190601f1680156107bb5780820380516001836020036101000a031916815260200191505b50858103835288818151815260200191508051906020019080838360005b838110156107f45780820151818401526020810190506107d9565b50505050905090810190601f1680156108215780820380516001836020036101000a031916815260200191505b50858103825286818151815260200191508051906020019080838360005b8381101561085a57808201518184015260208101905061083f565b50505050905090810190601f1680156108875780820380516001836020036101000a031916815260200191505b509a505050505050505050505060405180910390f35b6108c9600480360360208110156108b357600080fd5b8101908080359060200190929190505050611f13565b6040518082815260200191505060405180910390f35b6109a2600480360360408110156108f557600080fd5b81019080803590602001909291908035906020019064010000000081111561091c57600080fd5b82018360208201111561092e57600080fd5b8035906020019184600183028401116401000000008311171561095057600080fd5b91908080601f016020809104026020016040519081016040528093929190818152602001838380828437600081840152601f19601f820116905080830192505050505050509192919290505050611f33565b005b6109d0600480360360208110156109ba57600080fd5b8101908080359060200190929190505050611f81565b60405180878152602001868152602001806020018060200185815260200180602001848103845288818151815260200191508051906020019080838360005b83811015610a2a578082015181840152602081019050610a0f565b50505050905090810190601f168015610a575780820380516001836020036101000a031916815260200191505b50848103835287818151815260200191508051906020019080838360005b83811015610a90578082015181840152602081019050610a75565b50505050905090810190601f168015610abd5780820380516001836020036101000a031916815260200191505b50848103825285818151815260200191508051906020019080838360005b83811015610af6578082015181840152602081019050610adb565b50505050905090810190601f168015610b235780820380516001836020036101000a031916815260200191505b50995050505050505050505060405180910390f35b610b6460048036036020811015610b4e57600080fd5b81019080803590602001909291905050506121fb565b604051808060200180602001888152602001806020018781526020018681526020018060200185810385528c818151815260200191508051906020019080838360005b83811015610bc2578082015181840152602081019050610ba7565b50505050905090810190601f168015610bef5780820380516001836020036101000a031916815260200191505b5085810384528b818151815260200191508051906020019080838360005b83811015610c28578082015181840152602081019050610c0d565b50505050905090810190601f168015610c555780820380516001836020036101000a031916815260200191505b50858103835289818151815260200191508051906020019080838360005b83811015610c8e578082015181840152602081019050610c73565b50505050905090810190601f168015610cbb5780820380516001836020036101000a031916815260200191505b50858103825286818151815260200191508051906020019080838360005b83811015610cf4578082015181840152602081019050610cd9565b50505050905090810190601f168015610d215780820380516001836020036101000a031916815260200191505b509b50505050505050505050505060405180910390f35b610e9c60048036036080811015610d4e57600080fd5b810190808035906020019092919080359060200190640100000000811115610d7557600080fd5b820183602082011115610d8757600080fd5b80359060200191846001830284011164010000000083111715610da957600080fd5b91908080601f016020809104026020016040519081016040528093929190818152602001838380828437600081840152601f19601f82011690508083019250505050505050919291929080359060200190640100000000811115610e0c57600080fd5b820183602082011115610e1e57600080fd5b80359060200191846001830284011164010000000083111715610e4057600080fd5b91908080601f016020809104026020016040519081016040528093929190818152602001838380828437600081840152601f19601f82011690508083019250505050505050919291929080359060200190929190505050612569565b005b610eca60048036036020811015610eb457600080fd5b8101908080359060200190929190505050612712565b6040518080602001828103825283818151815260200191508051906020019080838360005b83811015610f0a578082015181840152602081019050610eef565b50505050905090810190601f168015610f375780820380516001836020036101000a031916815260200191505b509250505060405180910390f35b61100860048036036040811015610f5b57600080fd5b810190808035906020019092919080359060200190640100000000811115610f8257600080fd5b820183602082011115610f9457600080fd5b80359060200191846001830284011164010000000083111715610fb657600080fd5b91908080601f016020809104026020016040519081016040528093929190818152602001838380828437600081840152601f19601f82011690508083019250505050505050919291929050505061285b565b005b6110c36004803603602081101561102057600080fd5b810190808035906020019064010000000081111561103d57600080fd5b82018360208201111561104f57600080fd5b8035906020019184600183028401116401000000008311171561107157600080fd5b91908080601f016020809104026020016040519081016040528093929190818152602001838380828437600081840152601f19601f820116905080830192505050505050509192919290505050612962565b005b6110fb600480360360208110156110db57600080fd5b81019080803567ffffffffffffffff169060200190929190505050612a1c565b6040518080602001828103825283818151815260200191508051906020019080838360005b8381101561113b578082015181840152602081019050611120565b50505050905090810190601f1680156111685780820380516001836020036101000a031916815260200191505b509250505060405180910390f35b61117e612e29565b6040518082815260200191505060405180910390f35b6113a3600480360360e08110156111aa57600080fd5b8101908080359060200190929190803590602001906401000000008111156111d157600080fd5b8201836020820111156111e357600080fd5b8035906020019184600183028401116401000000008311171561120557600080fd5b91908080601f016020809104026020016040519081016040528093929190818152602001838380828437600081840152601f19601f8201169050808301925050505050505091929192908035906020019064010000000081111561126857600080fd5b82018360208201111561127a57600080fd5b8035906020019184600183028401116401000000008311171561129c57600080fd5b91908080601f016020809104026020016040519081016040528093929190818152602001838380828437600081840152601f19601f820116905080830192505050505050509192919290803590602001909291908035906020019064010000000081111561130957600080fd5b82018360208201111561131b57600080fd5b8035906020019184600183028401116401000000008311171561133d57600080fd5b91908080601f016020809104026020016040519081016040528093929190818152602001838380828437600081840152601f19601f8201169050808301925050505050505091929192908035906020019092919080359060200190929190505050612ead565b005b6113d1600480360360208110156113bb57600080fd5b81019080803590602001909291905050506130a0565b6040518080602001838152602001828103825284818151815260200191508051906020019080838360005b838110156114175780820151818401526020810190506113fc565b50505050905090810190601f1680156114445780820380516001836020036101000a031916815260200191505b50935050505060405180910390f35b61147f6004803603602081101561146957600080fd5b8101908080359060200190929190505050613215565b604051808060200180602001848152602001838103835286818151815260200191508051906020019080838360005b838110156114c95780820151818401526020810190506114ae565b50505050905090810190601f1680156114f65780820380516001836020036101000a031916815260200191505b50838103825285818151815260200191508051906020019080838360005b8381101561152f578082015181840152602081019050611514565b50505050905090810190601f16801561155c5780820380516001836020036101000a031916815260200191505b509550505050505060405180910390f35b6115996004803603602081101561158357600080fd5b810190808035906020019092919050505061340b565b6040518082815260200191505060405180910390f35b6115e5600480360360408110156115c557600080fd5b8101908080359060200190929190803590602001909291905050506134be565b6040518080602001828103825283818151815260200191508051906020019060200280838360005b8381101561162857808201518184015260208101905061160d565b505050509050019250505060405180910390f35b60008060008581526020019081526020016000205414801561169d57506000600260003373ffffffffffffffffffffffffffffffffffffffff1673ffffffffffffffffffffffffffffffffffffffff16815260200190815260200160002054145b6116a657600080fd5b816005600085815260200190815260200160002060000190805190602001906116d09291906135af565b5080600560008581526020019081526020016000206001018190555082600260003373ffffffffffffffffffffffffffffffffffffffff1673ffffffffffffffffffffffffffffffffffffffff1681526020019081526020016000208190555060036000808581526020019081526020016000208190555082600260003373ffffffffffffffffffffffffffffffffffffffff1673ffffffffffffffffffffffffffffffffffffffff16815260200190815260200160002081905550336003600085815260200190815260200160002060006101000a81548173ffffffffffffffffffffffffffffffffffffffff021916908373ffffffffffffffffffffffffffffffffffffffff160217905550505050565b600080600088815260200190815260200160002054148061184357506000600260003373ffffffffffffffffffffffffffffffffffffffff1673ffffffffffffffffffffffffffffffffffffffff16815260200190815260200160002054145b61184c57600080fd5b6040518060c0016040528087815260200186815260200185815260200184815260200183815260200182815250600760008881526020019081526020016000206000820151816000015560208201518160010190805190602001906118b292919061362f565b5060408201518160020190805190602001906118cf92919061362f565b5060608201518160030190805190602001906118ec92919061362f565b506080820151816004015560a082015181600501908051906020019061191392919061362f565b5090505060026000808881526020019081526020016000208190555085600260003373ffffffffffffffffffffffffffffffffffffffff1673ffffffffffffffffffffffffffffffffffffffff16815260200190815260200160002081905550336003600088815260200190815260200160002060006101000a81548173ffffffffffffffffffffffffffffffffffffffff021916908373ffffffffffffffffffffffffffffffffffffffff160217905550505050505050565b600080600260003373ffffffffffffffffffffffffffffffffffffffff1673ffffffffffffffffffffffffffffffffffffffff16815260200190815260200160002054905060016000808a8152602001908152602001600020541480611a455750600260008083815260200190815260200160002054145b611a4e57600080fd5b6000611a5989611f13565b905088600660008381526020019081526020016000206000018190555087600660008381526020019081526020016000206001018190555086600660008381526020019081526020016000206002019080519060200190611abb9291906135af565b5085600660008381526020019081526020016000206003019080519060200190611ae69291906135af565b5084600660008381526020019081526020016000206004018190555083600660008381526020019081526020016000206005019080519060200190611b2c9291906135af565b50600160008a815260200190815260200160002060070181908060018154018082558091505090600182039060005260206000200160009091929091909150555080925050509695505050505050565b60006060806060600060606000600260003373ffffffffffffffffffffffffffffffffffffffff1673ffffffffffffffffffffffffffffffffffffffff1681526020019081526020016000205490506002600080838152602001908152602001600020541480611bfe5750600160008083815260200190815260200160002054145b611c0757600080fd5b6007600089815260200190815260200160002060000154600760008a8152602001908152602001600020600101600760008b8152602001908152602001600020600201600760008c8152602001908152602001600020600301600760008d815260200190815260200160002060040154600760008e8152602001908152602001600020600501848054600181600116156101000203166002900480601f016020809104026020016040519081016040528092919081815260200182805460018160011615610100020316600290048015611d225780601f10611cf757610100808354040283529160200191611d22565b820191906000526020600020905b815481529060010190602001808311611d0557829003601f168201915b50505050509450838054600181600116156101000203166002900480601f016020809104026020016040519081016040528092919081815260200182805460018160011615610100020316600290048015611dbe5780601f10611d9357610100808354040283529160200191611dbe565b820191906000526020600020905b815481529060010190602001808311611da157829003601f168201915b50505050509350828054600181600116156101000203166002900480601f016020809104026020016040519081016040528092919081815260200182805460018160011615610100020316600290048015611e5a5780601f10611e2f57610100808354040283529160200191611e5a565b820191906000526020600020905b815481529060010190602001808311611e3d57829003601f168201915b50505050509250808054600181600116156101000203166002900480601f016020809104026020016040519081016040528092919081815260200182805460018160011615610100020316600290048015611ef65780601f10611ecb57610100808354040283529160200191611ef6565b820191906000526020600020905b815481529060010190602001808311611ed957829003601f168201915b505050505090509650965096509650965096505091939550919395565b600080620f42438362022bed0281611f2757fe5b06905080915050919050565b60016000808481526020019081526020016000205414611f5257600080fd5b80600160008481526020019081526020016000206006019080519060200190611f7c9291906135af565b505050565b6000806060806000606060066000888152602001908152602001600020600001546006600089815260200190815260200160002060010154600660008a8152602001908152602001600020600201600660008b8152602001908152602001600020600301600660008c815260200190815260200160002060040154600660008d8152602001908152602001600020600501838054600181600116156101000203166002900480601f0160208091040260200160405190810160405280929190818152602001828054600181600116156101000203166002900480156120a75780601f1061207c576101008083540402835291602001916120a7565b820191906000526020600020905b81548152906001019060200180831161208a57829003601f168201915b50505050509350828054600181600116156101000203166002900480601f0160208091040260200160405190810160405280929190818152602001828054600181600116156101000203166002900480156121435780601f1061211857610100808354040283529160200191612143565b820191906000526020600020905b81548152906001019060200180831161212657829003601f168201915b50505050509250808054600181600116156101000203166002900480601f0160208091040260200160405190810160405280929190818152602001828054600181600116156101000203166002900480156121df5780601f106121b4576101008083540402835291602001916121df565b820191906000526020600020905b8154815290600101906020018083116121c257829003601f168201915b5050505050905095509550955095509550955091939550919395565b60608060006060600080606060016000808a815260200190815260200160002054148061223a575060026000808a815260200190815260200160002054145b61224357600080fd5b60016000898152602001908152602001600020600001600160008a8152602001908152602001600020600101600160008b815260200190815260200160002060020154600160008c8152602001908152602001600020600301600160008d815260200190815260200160002060040154600160008e815260200190815260200160002060050154600160008f8152602001908152602001600020600601868054600181600116156101000203166002900480601f0160208091040260200160405190810160405280929190818152602001828054600181600116156101000203166002900480156123755780601f1061234a57610100808354040283529160200191612375565b820191906000526020600020905b81548152906001019060200180831161235857829003601f168201915b50505050509650858054600181600116156101000203166002900480601f0160208091040260200160405190810160405280929190818152602001828054600181600116156101000203166002900480156124115780601f106123e657610100808354040283529160200191612411565b820191906000526020600020905b8154815290600101906020018083116123f457829003601f168201915b50505050509550838054600181600116156101000203166002900480601f0160208091040260200160405190810160405280929190818152602001828054600181600116156101000203166002900480156124ad5780601f10612482576101008083540402835291602001916124ad565b820191906000526020600020905b81548152906001019060200180831161249057829003601f168201915b50505050509350808054600181600116156101000203166002900480601f0160208091040260200160405190810160405280929190818152602001828054600181600116156101000203166002900480156125495780601f1061251e57610100808354040283529160200191612549565b820191906000526020600020905b81548152906001019060200180831161252c57829003601f168201915b505050505090509650965096509650965096509650919395979092949650565b60008060008681526020019081526020016000205414806125c957506000600260003373ffffffffffffffffffffffffffffffffffffffff1673ffffffffffffffffffffffffffffffffffffffff16815260200190815260200160002054145b6125d257600080fd5b836009600086815260200190815260200160002060000181905550826009600086815260200190815260200160002060010190805190602001906126179291906135af565b50816009600086815260200190815260200160002060020190805190602001906126429291906135af565b5080600960008681526020019081526020016000206003018190555060046000808681526020019081526020016000208190555083600260003373ffffffffffffffffffffffffffffffffffffffff1673ffffffffffffffffffffffffffffffffffffffff16815260200190815260200160002081905550336003600086815260200190815260200160002060006101000a81548173ffffffffffffffffffffffffffffffffffffffff021916908373ffffffffffffffffffffffffffffffffffffffff16021790555050505050565b60606000600260003373ffffffffffffffffffffffffffffffffffffffff1673ffffffffffffffffffffffffffffffffffffffff16815260200190815260200160002054905060606006600060016000878152602001908152602001600020600701600180600089815260200190815260200160002060070180549050038154811061279a57fe5b906000526020600020015481526020019081526020016000206005018054600181600116156101000203166002900480601f01602080910402602001604051908101604052809291908181526020018280546001816001161561010002031660029004801561284a5780601f1061281f5761010080835404028352916020019161284a565b820191906000526020600020905b81548152906001019060200180831161282d57829003601f168201915b505050505090508092505050919050565b6000600260003373ffffffffffffffffffffffffffffffffffffffff1673ffffffffffffffffffffffffffffffffffffffff168152602001908152602001600020549050600260008083815260200190815260200160002054146128be57600080fd5b60006001600085815260200190815260200160002060070160018060008781526020019081526020016000206007018054905003815481106128fc57fe5b906000526020600020015490506006600082815260200190815260200160002060060183908060018154018082558091505090600182039060005260206000200160009091929091909150908051906020019061295a9291906135af565b505050505050565b6000600260003373ffffffffffffffffffffffffffffffffffffffff1673ffffffffffffffffffffffffffffffffffffffff168152602001908152602001600020549050600360008083815260200190815260200160002054146129c557600080fd5b60056000828152602001908152602001600020600201829080600181540180825580915050906001820390600052602060002001600090919290919091509080519060200190612a169291906135af565b50505050565b60606000600260003373ffffffffffffffffffffffffffffffffffffffff1673ffffffffffffffffffffffffffffffffffffffff16815260200190815260200160002054905060016000808567ffffffffffffffff168152602001908152602001600020541480612aa9575060026000808567ffffffffffffffff16815260200190815260200160002054145b8015612ae557506001600080838152602001908152602001600020541480612ae4575060026000806002815260200190815260200160002054145b5b612aee57600080fd5b6000600160008567ffffffffffffffff1681526020019081526020016000206004015490506000600160008667ffffffffffffffff16815260200190815260200160002060070160018060008867ffffffffffffffff168152602001908152602001600020600701805490500381548110612b6557fe5b9060005260206000200154905060006001905060008090505b6005600085815260200190815260200160002060020180549050811015612d9f576001151582151514612bb057612d9f565b60008090505b6006600085815260200190815260200160002060060180549050811015612d9157600660008581526020019081526020016000206006018181548110612bf857fe5b906000526020600020016040516020018080602001828103825283818154600181600116156101000203166002900481526020019150805460018160011615610100020316600290048015612c8e5780601f10612c6357610100808354040283529160200191612c8e565b820191906000526020600020905b815481529060010190602001808311612c7157829003601f168201915b50509250505060405160208183030381529060405280519060200120600560008781526020019081526020016000206002018381548110612ccb57fe5b906000526020600020016040516020018080602001828103825283818154600181600116156101000203166002900481526020019150805460018160011615610100020316600290048015612d615780601f10612d3657610100808354040283529160200191612d61565b820191906000526020600020905b815481529060010190602001808311612d4457829003601f168201915b505092505050604051602081830303815290604052805190602001201415612d8c5760009250612d91565b612bb6565b508080600101915050612b7e565b508015612de7576040518060400160405280600781526020017f7375636365737300000000000000000000000000000000000000000000000000815250945050505050612e24565b6040518060400160405280600481526020017f6661696c000000000000000000000000000000000000000000000000000000008152509450505050505b919050565b600080600260003373ffffffffffffffffffffffffffffffffffffffff1673ffffffffffffffffffffffffffffffffffffffff1681526020019081526020016000205490506000806000838152602001908152602001600020541415612e93576000915050612eaa565b600080828152602001908152602001600020549150505b90565b600080600089815260200190815260200160002054148015612f0e57506000600260003373ffffffffffffffffffffffffffffffffffffffff1673ffffffffffffffffffffffffffffffffffffffff16815260200190815260200160002054145b612f1757600080fd5b85600160008981526020019081526020016000206000019080519060200190612f419291906135af565b5084600160008981526020019081526020016000206001019080519060200190612f6c9291906135af565b5083600160008981526020019081526020016000206002018190555082600160008981526020019081526020016000206003019080519060200190612fb29291906135af565b5081600160008981526020019081526020016000206004018190555080600160008981526020019081526020016000206005018190555060016000808981526020019081526020016000208190555086600260003373ffffffffffffffffffffffffffffffffffffffff1673ffffffffffffffffffffffffffffffffffffffff16815260200190815260200160002081905550336003600089815260200190815260200160002060006101000a81548173ffffffffffffffffffffffffffffffffffffffff021916908373ffffffffffffffffffffffffffffffffffffffff16021790555050505050505050565b6060600080600260003373ffffffffffffffffffffffffffffffffffffffff1673ffffffffffffffffffffffffffffffffffffffff168152602001908152602001600020549050600160008083815260200190815260200160002054148061311a5750600360008086815260200190815260200160002054145b61312357600080fd5b600060056000868152602001908152602001600020600201805490509050600560008681526020019081526020016000206000016005600087815260200190815260200160002060010154818054600181600116156101000203166002900480601f0160208091040260200160405190810160405280929190818152602001828054600181600116156101000203166002900480156132035780601f106131d857610100808354040283529160200191613203565b820191906000526020600020905b8154815290600101906020018083116131e657829003601f168201915b50505050509150935093505050915091565b606080600060046000808681526020019081526020016000205414801561327a575083600260003373ffffffffffffffffffffffffffffffffffffffff1673ffffffffffffffffffffffffffffffffffffffff16815260200190815260200160002054145b61328357600080fd5b60096000858152602001908152602001600020600101600960008681526020019081526020016000206002016009600087815260200190815260200160002060030154828054600181600116156101000203166002900480601f01602080910402602001604051908101604052809291908181526020018280546001816001161561010002031660029004801561335b5780601f106133305761010080835404028352916020019161335b565b820191906000526020600020905b81548152906001019060200180831161333e57829003601f168201915b50505050509250818054600181600116156101000203166002900480601f0160208091040260200160405190810160405280929190818152602001828054600181600116156101000203166002900480156133f75780601f106133cc576101008083540402835291602001916133f7565b820191906000526020600020905b8154815290600101906020018083116133da57829003601f168201915b505050505091509250925092509193909250565b600080600260003373ffffffffffffffffffffffffffffffffffffffff1673ffffffffffffffffffffffffffffffffffffffff1681526020019081526020016000205490506002600080838152602001908152602001600020541461346f57600080fd5b6000834202604051602001808281526020019150506040516020818303038152906040528051906020012060001c90508060086000868152602001908152602001600020819055505050919050565b60606000600260003373ffffffffffffffffffffffffffffffffffffffff1673ffffffffffffffffffffffffffffffffffffffff1681526020019081526020016000205490506002600080838152602001908152602001600020541480156135385750826008600086815260200190815260200160002054145b61354157600080fd5b600160008581526020019081526020016000206007018054806020026020016040519081016040528092919081815260200182805480156135a157602002820191906000526020600020905b81548152602001906001019080831161358d575b505050505091505092915050565b828054600181600116156101000203166002900490600052602060002090601f016020900481019282601f106135f057805160ff191683800117855561361e565b8280016001018555821561361e579182015b8281111561361d578251825591602001919060010190613602565b5b50905061362b91906136af565b5090565b828054600181600116156101000203166002900490600052602060002090601f016020900481019282601f1061367057805160ff191683800117855561369e565b8280016001018555821561369e579182015b8281111561369d578251825591602001919060010190613682565b5b5090506136ab91906136af565b5090565b6136d191905b808211156136cd5760008160009055506001016136b5565b5090565b9056fea265627a7a723158207c68a94d95ebbf8383a071e4c1f8b33790e1972eb109bd85c66be7a921d52c8a64736f6c63430005100032",
  "source": "pragma solidity ^0.5.16;\n//pragma experimental ABIEncoderV2;\n \n \ncontract All_In_One {\n    \n    // Paitent Structure here \n    \n    struct paitent {           \n        string name;\n        string addres;\n        uint phoneNo;\n        string bloodGroup;\n        uint insuranceCompanyId;\n        uint emergencyContact;\n        string Precautions;\n        uint [] treatmentId;\n    }\n    \n    mapping (uint => uint ) entitie;\n    mapping (uint => paitent ) p_info;\n    mapping (address => uint) addresstoId;\n    mapping (uint => address) IdtoAdress;\n    mapping(address => uint)balancesOfMoney;\n \n    \n    function addPatientInfo (uint _adharCardNumber, string memory _name, string memory _addres,uint _phoneNo ,string memory _bloodGroup , uint _insuranceCompany, uint _emergencyContact) public  {\n        require(entitie[_adharCardNumber]==0 && addresstoId[msg.sender]==0); \n        p_info[_adharCardNumber].name = _name;\n        p_info[_adharCardNumber].addres = _addres;\n        p_info[_adharCardNumber].phoneNo = _phoneNo;\n        p_info[_adharCardNumber].bloodGroup = _bloodGroup;\n        p_info[_adharCardNumber].insuranceCompanyId = _insuranceCompany;\n        p_info[_adharCardNumber].emergencyContact = _emergencyContact;\n        entitie[_adharCardNumber] = 1; \n        addresstoId[msg.sender] = _adharCardNumber;\n        IdtoAdress[_adharCardNumber] = msg.sender;\n    }\n    \n    function getPatientInfo(uint  _adharCardNumber) public view returns(string memory name , string memory addres,uint phoneNo ,string memory bloodGroup , uint insuranceCompany, uint emergencyContacts, string memory Precautions){\n        require(entitie[_adharCardNumber]==1 || entitie[_adharCardNumber]==2 );\n        return(p_info[_adharCardNumber].name, p_info[_adharCardNumber].addres, p_info[_adharCardNumber].phoneNo, p_info[_adharCardNumber].bloodGroup, p_info[_adharCardNumber].insuranceCompanyId, p_info[_adharCardNumber].emergencyContact,p_info[_adharCardNumber].Precautions);\n    }\n    \n    function UpdatePrecautions( uint _adharCardNumber,string memory _Precautions ) public {\n        require(entitie[_adharCardNumber]==1);\n        p_info[_adharCardNumber].Precautions = _Precautions;\n    }\n    \n    //---------------------------------------------------------------------------------------------------------------------------------\n    // Insurance is here \n    struct insuranceCompany {\n        string name ;\n        uint phoneNo;\n        string[] notCovered;\n    }\n    \n    mapping (uint => insuranceCompany)insu_info;\n \n    function addInsurancecompany (uint _companyId, string memory _name, uint phone_no) public{\n        require(entitie[_companyId]==0 && addresstoId[msg.sender]==0); \n        insu_info[_companyId].name = _name;\n        insu_info[_companyId].phoneNo = phone_no;\n        addresstoId[msg.sender] = _companyId;\n        entitie[_companyId]=3;\n        addresstoId[msg.sender] = _companyId;\n        IdtoAdress[_companyId] = msg.sender;\n    }\n    \n    function getInsuranceCompany (uint Insu_id) public view returns (string memory name, uint phoneNo){\n        uint val = addresstoId[msg.sender];\n        require(entitie[val]==1 || entitie[Insu_id]==3); \n        uint length = insu_info[Insu_id].notCovered.length;\n        return(insu_info[Insu_id].name, insu_info[Insu_id].phoneNo);\n    }\n    \n    function addNotCoverdMedicationInInsurance(string memory _Medication) public{\n        uint val = addresstoId[msg.sender];\n        require(entitie[val]==3); \n        insu_info[val].notCovered.push(_Medication);  \n    }\n    \n    function applyForInsurance(uint64 _adharCardNumber) public view returns(string memory InsuranceStatus){\n        uint val = addresstoId[msg.sender];\n        require((entitie[_adharCardNumber]==1 || entitie[_adharCardNumber]==2) && (entitie[val]==1 || entitie[2]==2));\n        uint insu_id = p_info[_adharCardNumber].insuranceCompanyId;\n        uint latestTreatmentid = p_info[_adharCardNumber].treatmentId[p_info[_adharCardNumber].treatmentId.length-1];\n        bool flag = true;\n        for(uint j=0;j<insu_info[insu_id].notCovered.length;j++){\n\n            if(flag!=true)\n                break;\n            else{\n                for(uint i=0;i<tid[latestTreatmentid].InsuranceKeep.length;){\n                    if(keccak256(abi.encode(insu_info[insu_id].notCovered[j]))==keccak256(abi.encode(tid[latestTreatmentid].InsuranceKeep[i])))\n                    {\n                        flag = false;\n                        break;\n                    }\n                }    \n            }\n        }\n        if(flag)\n        return(\"success\");\n        //return (0x496e737572616e6365205375636365737366756c6c7920436c61696d6564);\n        else\n            return(\"fail\");\n        //return (0x496e737572616e636520436c61696d696e67204661696c6564);\n    }\n    \n    //---------------------------------------------------------------------------------------------------------------------------------\n    // Treatment Structure here \n    struct treatment {\n        uint patient_id;\n        uint doctor_id;\n        string diagnosis;\n        string test_conducted;\n        uint bill;\n        string medicine;\n        string[] InsuranceKeep;\n    }\n    \n    mapping(uint=>treatment) tid;\n            \n    function createTreatmentID(uint patient_id) public returns (uint){\n        uint treatment_id = (142317*patient_id)%1000003;\n        return treatment_id;\n    }\n    \n    function TreatPatient(uint patient_id,uint doctor_id,string memory diagnosis,string memory test_conducted,uint bill,string memory medicine) public  returns (uint){\n        uint val = addresstoId[msg.sender];\n        require(entitie[patient_id]==1 || entitie[val]==2 );\n        uint _tid = createTreatmentID(patient_id);\n        tid[_tid].patient_id = patient_id;\n        tid[_tid].doctor_id = doctor_id;\n        tid[_tid].diagnosis = diagnosis;\n        tid[_tid].test_conducted = test_conducted;\n        tid[_tid].bill = bill;\n        tid[_tid].medicine = medicine;\n        p_info[patient_id].treatmentId.push(_tid); // pushing treatmentId to array in treatmentId.\n        return _tid;\n    }\n    \n    function getTreatmentDetails(uint _tid) public view returns (uint p_id,uint d_id,string memory diagnosis,string memory test_conducted,uint bill,string memory medicine) {\n        return (tid[_tid].patient_id,tid[_tid].doctor_id,tid[_tid].diagnosis,tid[_tid].test_conducted,tid[_tid].bill,tid[_tid].medicine);\n    }\n        \n    function addInsuranceKeep(uint p_id, string memory  _medication) public {\n        uint val = addresstoId[msg.sender];\n        require(entitie[val]==2); \n        uint _t_id = p_info[p_id].treatmentId[p_info[p_id].treatmentId.length-1];\n        tid[_t_id].InsuranceKeep.push(_medication);   \n    }\n    \n    //---------------------------------------------------------------------------------------------------------------------------------\n    //Doctor starts here\n    \n     struct doctor{\n        uint doc_id;\n        string name;\n        string practice_type;\n        string area_of_expertize;\n        uint phone_no;\n        string Address;\n    }\n    \n    mapping(uint=>doctor) did;\n    mapping(uint => uint) Otp;\n    \n    function addDoctor(uint doc_id,string memory name,string memory practice_type,string memory area_of_expertize,uint phone_no,string memory Address) public {\n        require(entitie[doc_id]==0 || addresstoId[msg.sender]==0); \n        did[doc_id] = doctor(doc_id,name,practice_type,area_of_expertize,phone_no,Address);\n        entitie[doc_id]=2;\n        addresstoId[msg.sender] = doc_id;\n        IdtoAdress[doc_id] = msg.sender;\n    }\n \n    function getDoctorDetails(uint _d_id) public view returns (uint doc_id,string memory name,string memory practice_type,string memory area_of_expertize,uint phone_no,string memory Address){\n        uint val = addresstoId[msg.sender];\n        require(entitie[val]==2 || entitie[val]==1 ); \n        return( did[_d_id].doc_id,did[_d_id].name,did[_d_id].practice_type,did[_d_id].area_of_expertize,did[_d_id].phone_no,did[_d_id].Address);\n    }\n\n    function requestAccessToPatient(uint _adharCardNumber) public returns(uint){\n        uint val = addresstoId[msg.sender];\n        require(entitie[val]==2);\n        uint otp = uint(keccak256(abi.encode(now*_adharCardNumber)));\n        Otp[_adharCardNumber] = otp;\n    }\n       \n    function getDetailsOfAllTID(uint _adharCardNumber, uint OTP) public returns(uint [] memory){\n        uint val = addresstoId[msg.sender];\n        require(entitie[val]==2 && Otp[_adharCardNumber]==OTP);\n        return(p_info[_adharCardNumber].treatmentId);    \n    }\n\n    \n    //---------------------------------------------------------------------------------------------------------------------------------\n    //Medical store\n    \n    struct chemist {\n        uint chemist_id;\n        string Address;\n        string name;\n        uint phoneNo;\n        string[] medicines;\n    }\n    \n    mapping(uint=>chemist) cid;\n \n    function addChemist(uint chem_id, string memory Address, string memory name,uint phone_no) public {\n        require(entitie[chem_id]==0 || addresstoId[msg.sender]==0); \n        cid[chem_id].chemist_id = chem_id;\n        cid[chem_id].Address = Address;\n        cid[chem_id].name = name;\n        cid[chem_id].phoneNo = phone_no;\n        entitie[chem_id]=4;\n        addresstoId[msg.sender] = chem_id;\n        IdtoAdress[chem_id] = msg.sender;\n    }\n    \n    function getchemistinfo(uint chem_id) public returns(string memory Address, string memory name,uint phone_no){\n//        require(entitie[chem_id]==4 || entitie[chem_id]==1);\n        require(entitie[chem_id]==4 && addresstoId[msg.sender]==chem_id);\n        return( cid[chem_id].Address,cid[chem_id].name,cid[chem_id].phoneNo);\n    }\n    \n    function giveMedicines(uint p_id) public view returns(string memory){\n        uint val = addresstoId[msg.sender];\n        string memory medicatines = tid[p_info[p_id].treatmentId[p_info[p_id].treatmentId.length-1]].medicine;\n        return(medicatines);\n    }\n    \n//--------------------------------------------------------------------------------------------------------------------------\n//Identify\n \n    function Identify() public returns (uint val) {\n        uint No = addresstoId[msg.sender];\n        if(entitie[No]==0){\n            return(0);\n        }\n        else \n            return(entitie[No]);\n    }\n \n}\n",
  "sourcePath": "C:\\Users\\91705\\Desktop\\Heath_tele\\HealthBuddy-DApp-master\\contracts\\All_In_One.sol",
  "compiler": {
    "name": "solc",
    "version": "0.5.16+commit.9c3226ce.Emscripten.clang"
  },
  "schemaVersion": "3.4.3",
  "updatedAt": "2021-10-11T11:08:36.215Z",
  "networkType": "ethereum",
  "devdoc": {
    "methods": {}
  },
  "userdoc": {
    "methods": {}
  }
}